{
  "abi": [
    {
      "inputs": [],
      "name": "getNote",
      "outputs": [
        {
          "internalType": "string",
          "name": "",
          "type": "string"
        }
      ],
      "stateMutability": "view",
      "type": "function"
    },
    {
      "inputs": [],
      "name": "multiplyByTwo",
      "outputs": [
        {
          "internalType": "uint256",
          "name": "",
          "type": "uint256"
        }
      ],
      "stateMutability": "pure",
      "type": "function"
    },
    {
      "inputs": [
        {
          "internalType": "string",
          "name": "_pureNote",
          "type": "string"
        }
      ],
      "name": "pureNote",
      "outputs": [
        {
          "internalType": "string",
          "name": "",
          "type": "string"
        }
      ],
      "stateMutability": "pure",
      "type": "function"
    },
    {
      "inputs": [
        {
          "internalType": "string",
          "name": "_note",
          "type": "string"
        }
      ],
      "name": "setNote",
      "outputs": [],
      "stateMutability": "nonpayable",
      "type": "function"
    }
  ],
  "bytecode": "608060405234801561001057600080fd5b506103d6806100206000396000f3fe608060405234801561001057600080fd5b506004361061004c5760003560e01c80630b12625e146100515780632d7b299d14610065578063ca5a8acd1461007a578063df3ac47614610098575b600080fd5b604051600481526020015b60405180910390f35b610078610073366004610158565b6100a0565b005b61008b610088366004610158565b90565b60405161005c9190610209565b61008b6100b0565b60006100ac82826102e0565b5050565b6060600080546100bf90610257565b80601f01602080910402602001604051908101604052809291908181526020018280546100eb90610257565b80156101385780601f1061010d57610100808354040283529160200191610138565b820191906000526020600020905b81548152906001019060200180831161011b57829003601f168201915b5050505050905090565b634e487b7160e01b600052604160045260246000fd5b60006020828403121561016a57600080fd5b813567ffffffffffffffff8082111561018257600080fd5b818401915084601f83011261019657600080fd5b8135818111156101a8576101a8610142565b604051601f8201601f19908116603f011681019083821181831017156101d0576101d0610142565b816040528281528760208487010111156101e957600080fd5b826020860160208301376000928101602001929092525095945050505050565b600060208083528351808285015260005b818110156102365785810183015185820160400152820161021a565b506000604082860101526040601f19601f8301168501019250505092915050565b600181811c9082168061026b57607f821691505b60208210810361028b57634e487b7160e01b600052602260045260246000fd5b50919050565b601f8211156102db57600081815260208120601f850160051c810160208610156102b85750805b601f850160051c820191505b818110156102d7578281556001016102c4565b5050505b505050565b815167ffffffffffffffff8111156102fa576102fa610142565b61030e816103088454610257565b84610291565b602080601f831160018114610343576000841561032b5750858301515b600019600386901b1c1916600185901b1785556102d7565b600085815260208120601f198616915b8281101561037257888601518255948401946001909101908401610353565b50858210156103905787850151600019600388901b60f8161c191681555b5050505050600190811b0190555056fea26469706673582212206f67df8a37af54bb547d54ac671b8f6b9665757431b95c9dca426c24949059ca64736f6c63430008130033",
  "bytecodeSha1": "d52cca5e339e659380bd48a0246e1771193e7dee",
  "compiler": {
    "evm_version": "istanbul",
    "optimizer": {
      "enabled": true,
      "runs": 200
    },
    "version": "0.8.19+commit.7dd6d404"
  },
  "contractName": "Note",
  "language": "Solidity",
  "natspec": {
    "kind": "dev",
    "methods": {},
    "version": 1
  },
  "opcodes": "PUSH1 0x80 PUSH1 0x40 MSTORE CALLVALUE DUP1 ISZERO PUSH2 0x10 JUMPI PUSH1 0x0 DUP1 REVERT JUMPDEST POP PUSH1 0x4 CALLDATASIZE LT PUSH2 0x4C JUMPI PUSH1 0x0 CALLDATALOAD PUSH1 0xE0 SHR DUP1 PUSH4 0xB12625E EQ PUSH2 0x51 JUMPI DUP1 PUSH4 0x2D7B299D EQ PUSH2 0x65 JUMPI DUP1 PUSH4 0xCA5A8ACD EQ PUSH2 0x7A JUMPI DUP1 PUSH4 0xDF3AC476 EQ PUSH2 0x98 JUMPI JUMPDEST PUSH1 0x0 DUP1 REVERT JUMPDEST PUSH1 0x40 MLOAD PUSH1 0x4 DUP2 MSTORE PUSH1 0x20 ADD JUMPDEST PUSH1 0x40 MLOAD DUP1 SWAP2 SUB SWAP1 RETURN JUMPDEST PUSH2 0x78 PUSH2 0x73 CALLDATASIZE PUSH1 0x4 PUSH2 0x158 JUMP JUMPDEST PUSH2 0xA0 JUMP JUMPDEST STOP JUMPDEST PUSH2 0x8B PUSH2 0x88 CALLDATASIZE PUSH1 0x4 PUSH2 0x158 JUMP JUMPDEST SWAP1 JUMP JUMPDEST PUSH1 0x40 MLOAD PUSH2 0x5C SWAP2 SWAP1 PUSH2 0x209 JUMP JUMPDEST PUSH2 0x8B PUSH2 0xB0 JUMP JUMPDEST PUSH1 0x0 PUSH2 0xAC DUP3 DUP3 PUSH2 0x2E0 JUMP JUMPDEST POP POP JUMP JUMPDEST PUSH1 0x60 PUSH1 0x0 DUP1 SLOAD PUSH2 0xBF SWAP1 PUSH2 0x257 JUMP JUMPDEST DUP1 PUSH1 0x1F ADD PUSH1 0x20 DUP1 SWAP2 DIV MUL PUSH1 0x20 ADD PUSH1 0x40 MLOAD SWAP1 DUP2 ADD PUSH1 0x40 MSTORE DUP1 SWAP3 SWAP2 SWAP1 DUP2 DUP2 MSTORE PUSH1 0x20 ADD DUP3 DUP1 SLOAD PUSH2 0xEB SWAP1 PUSH2 0x257 JUMP JUMPDEST DUP1 ISZERO PUSH2 0x138 JUMPI DUP1 PUSH1 0x1F LT PUSH2 0x10D JUMPI PUSH2 0x100 DUP1 DUP4 SLOAD DIV MUL DUP4 MSTORE SWAP2 PUSH1 0x20 ADD SWAP2 PUSH2 0x138 JUMP JUMPDEST DUP3 ADD SWAP2 SWAP1 PUSH1 0x0 MSTORE PUSH1 0x20 PUSH1 0x0 KECCAK256 SWAP1 JUMPDEST DUP2 SLOAD DUP2 MSTORE SWAP1 PUSH1 0x1 ADD SWAP1 PUSH1 0x20 ADD DUP1 DUP4 GT PUSH2 0x11B JUMPI DUP3 SWAP1 SUB PUSH1 0x1F AND DUP3 ADD SWAP2 JUMPDEST POP POP POP POP POP SWAP1 POP SWAP1 JUMP JUMPDEST PUSH4 0x4E487B71 PUSH1 0xE0 SHL PUSH1 0x0 MSTORE PUSH1 0x41 PUSH1 0x4 MSTORE PUSH1 0x24 PUSH1 0x0 REVERT JUMPDEST PUSH1 0x0 PUSH1 0x20 DUP3 DUP5 SUB SLT ISZERO PUSH2 0x16A JUMPI PUSH1 0x0 DUP1 REVERT JUMPDEST DUP2 CALLDATALOAD PUSH8 0xFFFFFFFFFFFFFFFF DUP1 DUP3 GT ISZERO PUSH2 0x182 JUMPI PUSH1 0x0 DUP1 REVERT JUMPDEST DUP2 DUP5 ADD SWAP2 POP DUP5 PUSH1 0x1F DUP4 ADD SLT PUSH2 0x196 JUMPI PUSH1 0x0 DUP1 REVERT JUMPDEST DUP2 CALLDATALOAD DUP2 DUP2 GT ISZERO PUSH2 0x1A8 JUMPI PUSH2 0x1A8 PUSH2 0x142 JUMP JUMPDEST PUSH1 0x40 MLOAD PUSH1 0x1F DUP3 ADD PUSH1 0x1F NOT SWAP1 DUP2 AND PUSH1 0x3F ADD AND DUP2 ADD SWAP1 DUP4 DUP3 GT DUP2 DUP4 LT OR ISZERO PUSH2 0x1D0 JUMPI PUSH2 0x1D0 PUSH2 0x142 JUMP JUMPDEST DUP2 PUSH1 0x40 MSTORE DUP3 DUP2 MSTORE DUP8 PUSH1 0x20 DUP5 DUP8 ADD ADD GT ISZERO PUSH2 0x1E9 JUMPI PUSH1 0x0 DUP1 REVERT JUMPDEST DUP3 PUSH1 0x20 DUP7 ADD PUSH1 0x20 DUP4 ADD CALLDATACOPY PUSH1 0x0 SWAP3 DUP2 ADD PUSH1 0x20 ADD SWAP3 SWAP1 SWAP3 MSTORE POP SWAP6 SWAP5 POP POP POP POP POP JUMP JUMPDEST PUSH1 0x0 PUSH1 0x20 DUP1 DUP4 MSTORE DUP4 MLOAD DUP1 DUP3 DUP6 ADD MSTORE PUSH1 0x0 JUMPDEST DUP2 DUP2 LT ISZERO PUSH2 0x236 JUMPI DUP6 DUP2 ADD DUP4 ADD MLOAD DUP6 DUP3 ADD PUSH1 0x40 ADD MSTORE DUP3 ADD PUSH2 0x21A JUMP JUMPDEST POP PUSH1 0x0 PUSH1 0x40 DUP3 DUP7 ADD ADD MSTORE PUSH1 0x40 PUSH1 0x1F NOT PUSH1 0x1F DUP4 ADD AND DUP6 ADD ADD SWAP3 POP POP POP SWAP3 SWAP2 POP POP JUMP JUMPDEST PUSH1 0x1 DUP2 DUP2 SHR SWAP1 DUP3 AND DUP1 PUSH2 0x26B JUMPI PUSH1 0x7F DUP3 AND SWAP2 POP JUMPDEST PUSH1 0x20 DUP3 LT DUP2 SUB PUSH2 0x28B JUMPI PUSH4 0x4E487B71 PUSH1 0xE0 SHL PUSH1 0x0 MSTORE PUSH1 0x22 PUSH1 0x4 MSTORE PUSH1 0x24 PUSH1 0x0 REVERT JUMPDEST POP SWAP2 SWAP1 POP JUMP JUMPDEST PUSH1 0x1F DUP3 GT ISZERO PUSH2 0x2DB JUMPI PUSH1 0x0 DUP2 DUP2 MSTORE PUSH1 0x20 DUP2 KECCAK256 PUSH1 0x1F DUP6 ADD PUSH1 0x5 SHR DUP2 ADD PUSH1 0x20 DUP7 LT ISZERO PUSH2 0x2B8 JUMPI POP DUP1 JUMPDEST PUSH1 0x1F DUP6 ADD PUSH1 0x5 SHR DUP3 ADD SWAP2 POP JUMPDEST DUP2 DUP2 LT ISZERO PUSH2 0x2D7 JUMPI DUP3 DUP2 SSTORE PUSH1 0x1 ADD PUSH2 0x2C4 JUMP JUMPDEST POP POP POP JUMPDEST POP POP POP JUMP JUMPDEST DUP2 MLOAD PUSH8 0xFFFFFFFFFFFFFFFF DUP2 GT ISZERO PUSH2 0x2FA JUMPI PUSH2 0x2FA PUSH2 0x142 JUMP JUMPDEST PUSH2 0x30E DUP2 PUSH2 0x308 DUP5 SLOAD PUSH2 0x257 JUMP JUMPDEST DUP5 PUSH2 0x291 JUMP JUMPDEST PUSH1 0x20 DUP1 PUSH1 0x1F DUP4 GT PUSH1 0x1 DUP2 EQ PUSH2 0x343 JUMPI PUSH1 0x0 DUP5 ISZERO PUSH2 0x32B JUMPI POP DUP6 DUP4 ADD MLOAD JUMPDEST PUSH1 0x0 NOT PUSH1 0x3 DUP7 SWAP1 SHL SHR NOT AND PUSH1 0x1 DUP6 SWAP1 SHL OR DUP6 SSTORE PUSH2 0x2D7 JUMP JUMPDEST PUSH1 0x0 DUP6 DUP2 MSTORE PUSH1 0x20 DUP2 KECCAK256 PUSH1 0x1F NOT DUP7 AND SWAP2 JUMPDEST DUP3 DUP2 LT ISZERO PUSH2 0x372 JUMPI DUP9 DUP7 ADD MLOAD DUP3 SSTORE SWAP5 DUP5 ADD SWAP5 PUSH1 0x1 SWAP1 SWAP2 ADD SWAP1 DUP5 ADD PUSH2 0x353 JUMP JUMPDEST POP DUP6 DUP3 LT ISZERO PUSH2 0x390 JUMPI DUP8 DUP6 ADD MLOAD PUSH1 0x0 NOT PUSH1 0x3 DUP9 SWAP1 SHL PUSH1 0xF8 AND SHR NOT AND DUP2 SSTORE JUMPDEST POP POP POP POP POP PUSH1 0x1 SWAP1 DUP2 SHL ADD SWAP1 SSTORE POP JUMP INVALID LOG2 PUSH5 0x6970667358 0x22 SLT KECCAK256 PUSH16 0x67DF8A37AF54BB547D54AC671B8F6B96 PUSH6 0x757431B95C9D 0xCA TIMESTAMP PUSH13 0x24949059CA64736F6C63430008 SGT STOP CALLER ",
  "sha1": "798918a60b74ffafd94a685581391761cb756ce0",
  "source": "// SPDX-License-Identifier: MIT\npragma solidity ^0.8.18;\n\ncontract Note {\n    //Мы можем писать заметки а также читать наши заметки\n    string myNote; //state variable (состояние переменная)\n\n    //модификаторы доступа: private, internal, extarnal, public\n    //Если public -> автоматический создается геттер функция\n\n    //reference type (ссылочных типов) локальных переменных пишем memory\n\n    function setNote(string memory _note) public {\n        myNote = _note;\n    }\n\n    function multiplyByTwo() pure public returns (uint256){\n        return 4;\n    }\n    function pureNote(\n        string memory _pureNote\n    ) public pure returns (string memory) {\n        //pure вы даже не читаете state\n        return _pureNote;\n    }\n\n    function getNote() public view returns (string memory) {\n        //view = gasless (бесплатной)\n        return myNote;\n    }\n}\n",
  "sourcePath": "contracts/Note.sol",
  "type": "contract"
}